:1000000012C0D4C12BC02AC029C028C027C026C016
:10001000F2C124C023C022C021C020C01FC01EC006
:100020001DC01CC01BC011241FBECFE5D4E0DEBF25
:10003000CDBF10E0A0E6B0E0ECE3F5E002C0059033
:100040000D92A236B107D9F720E0A2E6B0E001C0D8
:100050001D92AE36B207E1F703D26EC2D1CF1EBCFD
:100060008EEF809361000895809166000895FC01F1
:1000700080916600882359F0809167008083809189
:100080006800818380916900828381E0089580E027
:100090000895E9E6F0E08081208130E035952795EC
:1000A00023708695869586958C70822B08951F9374
:1000B000CF93DF931092650010926400C0916400AA
:1000C000D0916500CB33D10540F5CE0102961FD209
:1000D000182F8F3FE1F0CE011AD29091670089135B
:1000E00016C0CE01019613D29091680089130FC0FB
:1000F000812F817080936300811111C0209169006C
:10010000812F90E0207F30E08217930741F0239603
:10011000D0936500C0936400D1CF80E001C081E03E
:10012000DF91CF911F91089590916600911195C034
:100130002CB53DB51DBC1CBC882309F48AC0309386
:100140006B0020936A00809161008831D8F540915E
:100150006C0050916D00B901660F771F6417750729
:10016000F8F4B901660F771F660F771F4617570718
:10017000B8F4E82FE695E695E695F0E0E959FF4FEB
:10018000408190E0809590958770992721E030E03C
:10019000082E01C0220F0A94EAF7422B408312C0B6
:1001A000CA01880F991F8217930748F4440F551FFF
:1001B000440F551F2417350710F4000003C08DEFBE
:1001C00080936100809161008F3F21F580916A00EA
:1001D00090916B0020916C0030916D006BE1629FFB
:1001E000A001639F500D11244817590780F461E264
:1001F000629FA001639F500D11248417950738F466
:1002000010926700109268001092690003C08DEF91
:1002100080936100809161008E3F11F481E08EBD7A
:10022000809161008F5F809361008831B1F481E03B
:10023000809366008EEF809361001092620080913F
:100240006000882351F033DF809362008093660062
:10025000089530936D0020936C000895809166009E
:100260008823C9F080916200811103C020DF809350
:10027000620080916200882361F08091630088238E
:1002800011F007DF03C0809169008F701092660043
:100290000895109266008FEF08951F93CF93DF9318
:1002A000182F1092650010926400C0916400D091E4
:1002B0006500CB33D10530F5CE01029628D18F3FB2
:1002C000D9F460916700CE012AD1609168008091D5
:1002D000640090916500019622D180916400909114
:1002E0006500112311F061E003C060916900607F37
:1002F000029615D181E007C02396D0936500C09384
:100300006400D3CF80E0DF91CF911F910895809159
:1003100066008823C9F080916200811103C0C7DEA6
:10032000809362008091620081110EC0809169000B
:100330008F70813011F480E006C0809169008F7069
:10034000833011F481E0A9CF80E0089580916600A8
:100350008823C1F080916200811103C0A8DE8093E0
:10036000620080916200882359F08091640090912E
:1003700065006FEF0296D3D01092660081E0089579
:100380001092660080E00895CF93DF93C2E0D0E042
:10039000CE01BDD08F3F19F06FEFCE01C0D02396B4
:1003A000CE33D105A9F7DF91CF9108951F920F9217
:1003B0000FB60F9211242F933F934F935F936F9338
:1003C0007F938F939F93AF93BF93EF93FF9380B3EC
:1003D0008470AADEFF91EF91BF91AF919F918F91B1
:1003E0007F916F915F914F913F912F910F900FBE31
:1003F0000F901F9018951F920F920FB60F92112415
:100400002F933F934F935F936F937F938F939F931C
:10041000AF93BF93EF93FF9322DEFF91EF91BF91D4
:10042000AF919F918F917F916F915F914F913F918C
:100430002F910F900FBE0F901F9018955D9BFECFD0
:100440008CB9089584E128E098B3922798BBE3ED36
:10045000F0E33197F1F700C000008150A9F708954B
:10046000CF93DF9300D01F92CDB7DEB7479A88EFC6
:1004700087BB87E088BB8FE384BB8BEF81BB81E0C8
:1004800085BF80E48BBF84E089BF10BC89E189B956
:1004900088E08AB986E880BD10926000789418E000
:1004A000B09908C0C39AE0DD8823A1F030DF88232B
:1004B00089F00DC0B19908C088B3812788BBD4DD0D
:1004C000882341F043DFF3CFB29903C05DDFBADF89
:1004D00001C0C398CE010196CADD882389F08981C5
:1004E000ADDF8A81ABDF8B81A9DFB8DE87FD08C075
:1004F00085BB8FE493EC0197F1F700C0000015BABB
:100500008FE493EC0197F1F700C00000C9CFE199A7
:10051000FECF9FBB8EBBE09A99278DB30895262FFF
:10052000E199FECF9FBB8EBB2DBB0FB6F894E29A2C
:0C053000E19A0FBE01960895F894FFCFE9
:02053C0001FEBE
:00000001FF
