S016000041534B526D744374726C446364722E73726563EA
S113000012C06AC02BC02AC029C028C027C026C07D
S11300101EC124C023C022C021C020C01FC01EC0D6
S11300201DC01CC01BC011241FBECFE5D4E0DEBF21
S1130030CDBF10E0A0E6B0E0EAEFF4E002C0059026
S11300400D92A236B107D9F720E0A2E6B0E001C0D4
S11300501D92AE36B207E1F7E2D14DC2D1CF1F9364
S1130060CF93DF931092650010926400C0916400F6
S1130070D0916500CB33D10540F5CE01029626D24E
S1130080182F8F3FE1F0CE0121D2909167008913A0
S113009016C0CE0101961AD29091680089130FC040
S11300A0812F817080936300811111C020916900B8
S11300B0812F90E0207F30E08217930741F0239650
S11300C0D0936500C0936400D1CF80E001C081E08B
S11300D0DF91CF911F9108951F920F920FB60F9247
S11300E011242F933F934F935F936F937F938F9339
S11300F09F93AF93BF93EF93FF9380916600811119
S113010095C08CB59DB51DBC1CBC829B8BC09093C7
S11301106B0080936A00609161006831E0F5209182
S11301206C0030916D00AC01440F551F421753070A
S113013000F5AC01440F551F440F551F2417350714
S1130140C0F4E62FE695E695E695F0E0E959FF4F11
S11301504081862F90E0809590958770992721E0C3
S113016030E0082E01C0220F0A94EAF7422B4083A4
S113017012C0A901440F551F4817590748F4220F0C
S1130180331F220F331F8217930710F4000003C09C
S11301908DEF80936100809161008F3F21F5809104
S11301A06A0090916B0020916C0030916D006BE1BE
S11301B0629FA001639F500D11244817590780F4D2
S11301C061E2629FA001639F500D1124841795077B
S11301D038F410926700109268001092690003C00E
S11301E08DEF80936100809161008E3F11F481E076
S11301F08EBD809161008F5F809361008831B1F47E
S113020081E0809366008EEF80936100109262001B
S113021080916000882351F022DF809362008093F4
S1130220660004C090936D0080936C00FF91EF9181
S1130230BF91AF919F918F917F916F915F914F91FA
S11302403F912F910F900FBE0F901F9018951F9202
S11302500F920FB60F9211241EBC0F900FBE0F9079
S11302601F901895809166000895FC0180916600A6
S1130270882359F08091670080838091680081838E
S113028080916900828381E0089580E00895E9E621
S1130290F0E08081208130E03595279523708695A4
S11302A0869586958C70822B0895809166008823AC
S11302B0C9F080916200811103C0D1DE8093620095
S11302C080916200882361F080916300882311F09B
S11302D0DEDF03C0809169008F701092660008957C
S11302E0109266008FEF08951F93CF93DF93182F1A
S11302F01092650010926400C0916400D091650072
S1130300CB33D10530F5CE010296E0D08F3FD9F43E
S113031060916700CE01E2D0609168008091640032
S1130320909165000196DAD0809164009091650007
S1130330112311F061E003C060916900607F0296AF
S1130340CDD081E007C02396D0936500C0936400AC
S1130350D3CF80E0DF91CF911F9108958091660003
S11303608823C9F080916200811103C078DE8093F4
S113037062008091620081110EC0809169008F70CB
S1130380813011F480E006C0809169008F70833061
S113039011F481E0A9CF80E008958091660088235C
S11303A0C1F080916200811103C059DE8093620024
S11303B080916200882359F08091640090916500D7
S11303C06FEF02968BD01092660081E00895109230
S11303D0660080E00895CF93DF93C2E0D0E0CE01C1
S11303E075D08F3F19F06FEFCE0178D02396CE33BE
S11303F0D105A9F7DF91CF9108955D9BFECF8CB90C
S1130400089584E128E098B3922798BBE3EDF0E3E4
S11304103197F1F700C000008150A9F70895CF93F8
S1130420DF9300D01F92CDB7DEB7479A88EF87BB22
S113043087E088BB8FE384BB8BEF81BB81E085BF02
S113044080E48BBF84E089BF10BC89E189B988E06E
S11304508AB986E880BD10926000789418E0B0995B
S113046008C0C39AFFDE8823A1F078DF882389F0CF
S11304700DC0B19908C088B3812788BBF3DE8823F7
S113048041F08BDFF3CFB29903C0A5DFBADF01C01F
S1130490C398CE010196E9DE882389F08981ADDF16
S11304A08A81ABDF8B81A9DF00DF87FD08C085BBB4
S11304B08FE493EC0197F1F700C0000015BA8FE4C4
S11304C093EC0197F1F700C00000C9CFE199FECF8A
S11304D09FBB8EBBE09A99278DB30895262FE1998F
S11304E0FECF9FBB8EBB2DBB0FB6F894E29AE19A68
S10D04F00FBE01960895F894FFCFA3
S10504FA01FEFD
S9030000FC
